{
  "_format": "hh-sol-artifact-1",
  "contractName": "MyNFT",
  "sourceName": "contracts/MyNFT.sol",
  "abi": [
    {
      "inputs": [],
      "stateMutability": "nonpayable",
      "type": "constructor"
    },
    {
      "inputs": [
        {
          "internalType": "address",
          "name": "sender",
          "type": "address"
        },
        {
          "internalType": "uint256",
          "name": "tokenId",
          "type": "uint256"
        },
        {
          "internalType": "address",
          "name": "owner",
          "type": "address"
        }
      ],
      "name": "ERC721IncorrectOwner",
      "type": "error"
    },
    {
      "inputs": [
        {
          "internalType": "address",
          "name": "operator",
          "type": "address"
        },
        {
          "internalType": "uint256",
          "name": "tokenId",
          "type": "uint256"
        }
      ],
      "name": "ERC721InsufficientApproval",
      "type": "error"
    },
    {
      "inputs": [
        {
          "internalType": "address",
          "name": "approver",
          "type": "address"
        }
      ],
      "name": "ERC721InvalidApprover",
      "type": "error"
    },
    {
      "inputs": [
        {
          "internalType": "address",
          "name": "operator",
          "type": "address"
        }
      ],
      "name": "ERC721InvalidOperator",
      "type": "error"
    },
    {
      "inputs": [
        {
          "internalType": "address",
          "name": "owner",
          "type": "address"
        }
      ],
      "name": "ERC721InvalidOwner",
      "type": "error"
    },
    {
      "inputs": [
        {
          "internalType": "address",
          "name": "receiver",
          "type": "address"
        }
      ],
      "name": "ERC721InvalidReceiver",
      "type": "error"
    },
    {
      "inputs": [
        {
          "internalType": "address",
          "name": "sender",
          "type": "address"
        }
      ],
      "name": "ERC721InvalidSender",
      "type": "error"
    },
    {
      "inputs": [
        {
          "internalType": "uint256",
          "name": "tokenId",
          "type": "uint256"
        }
      ],
      "name": "ERC721NonexistentToken",
      "type": "error"
    },
    {
      "inputs": [
        {
          "internalType": "address",
          "name": "owner",
          "type": "address"
        }
      ],
      "name": "OwnableInvalidOwner",
      "type": "error"
    },
    {
      "inputs": [
        {
          "internalType": "address",
          "name": "account",
          "type": "address"
        }
      ],
      "name": "OwnableUnauthorizedAccount",
      "type": "error"
    },
    {
      "anonymous": false,
      "inputs": [
        {
          "indexed": true,
          "internalType": "address",
          "name": "owner",
          "type": "address"
        },
        {
          "indexed": true,
          "internalType": "address",
          "name": "approved",
          "type": "address"
        },
        {
          "indexed": true,
          "internalType": "uint256",
          "name": "tokenId",
          "type": "uint256"
        }
      ],
      "name": "Approval",
      "type": "event"
    },
    {
      "anonymous": false,
      "inputs": [
        {
          "indexed": true,
          "internalType": "address",
          "name": "owner",
          "type": "address"
        },
        {
          "indexed": true,
          "internalType": "address",
          "name": "operator",
          "type": "address"
        },
        {
          "indexed": false,
          "internalType": "bool",
          "name": "approved",
          "type": "bool"
        }
      ],
      "name": "ApprovalForAll",
      "type": "event"
    },
    {
      "anonymous": false,
      "inputs": [
        {
          "indexed": true,
          "internalType": "address",
          "name": "previousOwner",
          "type": "address"
        },
        {
          "indexed": true,
          "internalType": "address",
          "name": "newOwner",
          "type": "address"
        }
      ],
      "name": "OwnershipTransferred",
      "type": "event"
    },
    {
      "anonymous": false,
      "inputs": [
        {
          "indexed": true,
          "internalType": "address",
          "name": "from",
          "type": "address"
        },
        {
          "indexed": true,
          "internalType": "address",
          "name": "to",
          "type": "address"
        },
        {
          "indexed": true,
          "internalType": "uint256",
          "name": "tokenId",
          "type": "uint256"
        }
      ],
      "name": "Transfer",
      "type": "event"
    },
    {
      "inputs": [
        {
          "internalType": "address",
          "name": "to",
          "type": "address"
        },
        {
          "internalType": "uint256",
          "name": "tokenId",
          "type": "uint256"
        }
      ],
      "name": "approve",
      "outputs": [],
      "stateMutability": "nonpayable",
      "type": "function"
    },
    {
      "inputs": [
        {
          "internalType": "address",
          "name": "owner",
          "type": "address"
        }
      ],
      "name": "balanceOf",
      "outputs": [
        {
          "internalType": "uint256",
          "name": "",
          "type": "uint256"
        }
      ],
      "stateMutability": "view",
      "type": "function"
    },
    {
      "inputs": [
        {
          "internalType": "uint256",
          "name": "tokenId",
          "type": "uint256"
        }
      ],
      "name": "getApproved",
      "outputs": [
        {
          "internalType": "address",
          "name": "",
          "type": "address"
        }
      ],
      "stateMutability": "view",
      "type": "function"
    },
    {
      "inputs": [
        {
          "internalType": "address",
          "name": "owner",
          "type": "address"
        },
        {
          "internalType": "address",
          "name": "operator",
          "type": "address"
        }
      ],
      "name": "isApprovedForAll",
      "outputs": [
        {
          "internalType": "bool",
          "name": "",
          "type": "bool"
        }
      ],
      "stateMutability": "view",
      "type": "function"
    },
    {
      "inputs": [
        {
          "internalType": "address",
          "name": "to",
          "type": "address"
        }
      ],
      "name": "mintTo",
      "outputs": [],
      "stateMutability": "nonpayable",
      "type": "function"
    },
    {
      "inputs": [],
      "name": "name",
      "outputs": [
        {
          "internalType": "string",
          "name": "",
          "type": "string"
        }
      ],
      "stateMutability": "view",
      "type": "function"
    },
    {
      "inputs": [],
      "name": "owner",
      "outputs": [
        {
          "internalType": "address",
          "name": "",
          "type": "address"
        }
      ],
      "stateMutability": "view",
      "type": "function"
    },
    {
      "inputs": [
        {
          "internalType": "uint256",
          "name": "tokenId",
          "type": "uint256"
        }
      ],
      "name": "ownerOf",
      "outputs": [
        {
          "internalType": "address",
          "name": "",
          "type": "address"
        }
      ],
      "stateMutability": "view",
      "type": "function"
    },
    {
      "inputs": [],
      "name": "renounceOwnership",
      "outputs": [],
      "stateMutability": "nonpayable",
      "type": "function"
    },
    {
      "inputs": [
        {
          "internalType": "address",
          "name": "from",
          "type": "address"
        },
        {
          "internalType": "address",
          "name": "to",
          "type": "address"
        },
        {
          "internalType": "uint256",
          "name": "tokenId",
          "type": "uint256"
        }
      ],
      "name": "safeTransferFrom",
      "outputs": [],
      "stateMutability": "nonpayable",
      "type": "function"
    },
    {
      "inputs": [
        {
          "internalType": "address",
          "name": "from",
          "type": "address"
        },
        {
          "internalType": "address",
          "name": "to",
          "type": "address"
        },
        {
          "internalType": "uint256",
          "name": "tokenId",
          "type": "uint256"
        },
        {
          "internalType": "bytes",
          "name": "data",
          "type": "bytes"
        }
      ],
      "name": "safeTransferFrom",
      "outputs": [],
      "stateMutability": "nonpayable",
      "type": "function"
    },
    {
      "inputs": [
        {
          "internalType": "address",
          "name": "operator",
          "type": "address"
        },
        {
          "internalType": "bool",
          "name": "approved",
          "type": "bool"
        }
      ],
      "name": "setApprovalForAll",
      "outputs": [],
      "stateMutability": "nonpayable",
      "type": "function"
    },
    {
      "inputs": [
        {
          "internalType": "bytes4",
          "name": "interfaceId",
          "type": "bytes4"
        }
      ],
      "name": "supportsInterface",
      "outputs": [
        {
          "internalType": "bool",
          "name": "",
          "type": "bool"
        }
      ],
      "stateMutability": "view",
      "type": "function"
    },
    {
      "inputs": [],
      "name": "symbol",
      "outputs": [
        {
          "internalType": "string",
          "name": "",
          "type": "string"
        }
      ],
      "stateMutability": "view",
      "type": "function"
    },
    {
      "inputs": [],
      "name": "tokenCounter",
      "outputs": [
        {
          "internalType": "uint256",
          "name": "",
          "type": "uint256"
        }
      ],
      "stateMutability": "view",
      "type": "function"
    },
    {
      "inputs": [
        {
          "internalType": "uint256",
          "name": "tokenId",
          "type": "uint256"
        }
      ],
      "name": "tokenURI",
      "outputs": [
        {
          "internalType": "string",
          "name": "",
          "type": "string"
        }
      ],
      "stateMutability": "view",
      "type": "function"
    },
    {
      "inputs": [
        {
          "internalType": "address",
          "name": "from",
          "type": "address"
        },
        {
          "internalType": "address",
          "name": "to",
          "type": "address"
        },
        {
          "internalType": "uint256",
          "name": "tokenId",
          "type": "uint256"
        }
      ],
      "name": "transferFrom",
      "outputs": [],
      "stateMutability": "nonpayable",
      "type": "function"
    },
    {
      "inputs": [
        {
          "internalType": "address",
          "name": "from",
          "type": "address"
        },
        {
          "internalType": "address",
          "name": "to",
          "type": "address"
        },
        {
          "internalType": "uint256",
          "name": "tokenId",
          "type": "uint256"
        }
      ],
      "name": "transferNFT",
      "outputs": [],
      "stateMutability": "nonpayable",
      "type": "function"
    },
    {
      "inputs": [
        {
          "internalType": "address",
          "name": "newOwner",
          "type": "address"
        }
      ],
      "name": "transferOwnership",
      "outputs": [],
      "stateMutability": "nonpayable",
      "type": "function"
    }
  ],
  "bytecode": "0x60806040523480156200001157600080fd5b50336040518060400160405280600581526020017f4d794e46540000000000000000000000000000000000000000000000000000008152506040518060400160405280600481526020017f4d4e46540000000000000000000000000000000000000000000000000000000081525081600090816200009091906200047a565b508060019081620000a291906200047a565b505050600073ffffffffffffffffffffffffffffffffffffffff168173ffffffffffffffffffffffffffffffffffffffff16036200011a5760006040517f1e4fbdf7000000000000000000000000000000000000000000000000000000008152600401620001119190620005a6565b60405180910390fd5b6200012b816200013a60201b60201c565b506000600781905550620005c3565b6000600660009054906101000a900473ffffffffffffffffffffffffffffffffffffffff16905081600660006101000a81548173ffffffffffffffffffffffffffffffffffffffff021916908373ffffffffffffffffffffffffffffffffffffffff1602179055508173ffffffffffffffffffffffffffffffffffffffff168173ffffffffffffffffffffffffffffffffffffffff167f8be0079c531659141344cd1fd0a4f28419497f9722a3daafe3b4186f6b6457e060405160405180910390a35050565b600081519050919050565b7f4e487b7100000000000000000000000000000000000000000000000000000000600052604160045260246000fd5b7f4e487b7100000000000000000000000000000000000000000000000000000000600052602260045260246000fd5b600060028204905060018216806200028257607f821691505b6020821081036200029857620002976200023a565b5b50919050565b60008190508160005260206000209050919050565b60006020601f8301049050919050565b600082821b905092915050565b600060088302620003027fffffffffffffffffffffffffffffffffffffffffffffffffffffffffffffffff82620002c3565b6200030e8683620002c3565b95508019841693508086168417925050509392505050565b6000819050919050565b6000819050919050565b60006200035b620003556200034f8462000326565b62000330565b62000326565b9050919050565b6000819050919050565b62000377836200033a565b6200038f620003868262000362565b848454620002d0565b825550505050565b600090565b620003a662000397565b620003b38184846200036c565b505050565b5b81811015620003db57620003cf6000826200039c565b600181019050620003b9565b5050565b601f8211156200042a57620003f4816200029e565b620003ff84620002b3565b810160208510156200040f578190505b620004276200041e85620002b3565b830182620003b8565b50505b505050565b600082821c905092915050565b60006200044f600019846008026200042f565b1980831691505092915050565b60006200046a83836200043c565b9150826002028217905092915050565b620004858262000200565b67ffffffffffffffff811115620004a157620004a06200020b565b5b620004ad825462000269565b620004ba828285620003df565b600060209050601f831160018114620004f25760008415620004dd578287015190505b620004e985826200045c565b86555062000559565b601f19841662000502866200029e565b60005b828110156200052c5784890151825560018201915060208501945060208101905062000505565b868310156200054c578489015162000548601f8916826200043c565b8355505b6001600288020188555050505b505050505050565b600073ffffffffffffffffffffffffffffffffffffffff82169050919050565b60006200058e8262000561565b9050919050565b620005a08162000581565b82525050565b6000602082019050620005bd600083018462000595565b92915050565b6123af80620005d36000396000f3fe608060405234801561001057600080fd5b50600436106101215760003560e01c8063715018a6116100ad578063b88d4fde11610071578063b88d4fde146102f2578063c87b56dd1461030e578063d082e3811461033e578063e985e9c51461035c578063f2fde38b1461038c57610121565b8063715018a614610274578063755edd171461027e5780638da5cb5b1461029a57806395d89b41146102b8578063a22cb465146102d657610121565b806323b872dd116100f457806323b872dd146101c057806342842e0e146101dc5780636352211e146101f857806369e9cae11461022857806370a082311461024457610121565b806301ffc9a71461012657806306fdde0314610156578063081812fc14610174578063095ea7b3146101a4575b600080fd5b610140600480360381019061013b9190611b2a565b6103a8565b60405161014d9190611b72565b60405180910390f35b61015e61048a565b60405161016b9190611c1d565b60405180910390f35b61018e60048036038101906101899190611c75565b61051c565b60405161019b9190611ce3565b60405180910390f35b6101be60048036038101906101b99190611d2a565b610538565b005b6101da60048036038101906101d59190611d6a565b61054e565b005b6101f660048036038101906101f19190611d6a565b610650565b005b610212600480360381019061020d9190611c75565b610670565b60405161021f9190611ce3565b60405180910390f35b610242600480360381019061023d9190611d6a565b610682565b005b61025e60048036038101906102599190611dbd565b610708565b60405161026b9190611df9565b60405180910390f35b61027c6107c2565b005b61029860048036038101906102939190611dbd565b6107d6565b005b6102a2610807565b6040516102af9190611ce3565b60405180910390f35b6102c0610831565b6040516102cd9190611c1d565b60405180910390f35b6102f060048036038101906102eb9190611e40565b6108c3565b005b61030c60048036038101906103079190611fb5565b6108d9565b005b61032860048036038101906103239190611c75565b6108fe565b6040516103359190611c1d565b60405180910390f35b610346610967565b6040516103539190611df9565b60405180910390f35b61037660048036038101906103719190612038565b61096d565b6040516103839190611b72565b60405180910390f35b6103a660048036038101906103a19190611dbd565b610a01565b005b60007f80ac58cd000000000000000000000000000000000000000000000000000000007bffffffffffffffffffffffffffffffffffffffffffffffffffffffff1916827bffffffffffffffffffffffffffffffffffffffffffffffffffffffff1916148061047357507f5b5e139f000000000000000000000000000000000000000000000000000000007bffffffffffffffffffffffffffffffffffffffffffffffffffffffff1916827bffffffffffffffffffffffffffffffffffffffffffffffffffffffff1916145b80610483575061048282610a87565b5b9050919050565b606060008054610499906120a7565b80601f01602080910402602001604051908101604052809291908181526020018280546104c5906120a7565b80156105125780601f106104e757610100808354040283529160200191610512565b820191906000526020600020905b8154815290600101906020018083116104f557829003601f168201915b5050505050905090565b600061052782610af1565b5061053182610b79565b9050919050565b61054a8282610545610bb6565b610bbe565b5050565b600073ffffffffffffffffffffffffffffffffffffffff168273ffffffffffffffffffffffffffffffffffffffff16036105c05760006040517f64a0ae920000000000000000000000000000000000000000000000000000000081526004016105b79190611ce3565b60405180910390fd5b60006105d483836105cf610bb6565b610bd0565b90508373ffffffffffffffffffffffffffffffffffffffff168173ffffffffffffffffffffffffffffffffffffffff161461064a578382826040517f64283d7b000000000000000000000000000000000000000000000000000000008152600401610641939291906120d8565b60405180910390fd5b50505050565b61066b838383604051806020016040528060008152506108d9565b505050565b600061067b82610af1565b9050919050565b8273ffffffffffffffffffffffffffffffffffffffff166106a282610670565b73ffffffffffffffffffffffffffffffffffffffff16146106f8576040517f08c379a00000000000000000000000000000000000000000000000000000000081526004016106ef9061215b565b60405180910390fd5b610703838383610dea565b505050565b60008073ffffffffffffffffffffffffffffffffffffffff168273ffffffffffffffffffffffffffffffffffffffff160361077b5760006040517f89c62b640000000000000000000000000000000000000000000000000000000081526004016107729190611ce3565b60405180910390fd5b600360008373ffffffffffffffffffffffffffffffffffffffff1673ffffffffffffffffffffffffffffffffffffffff168152602001908152602001600020549050919050565b6107ca610f57565b6107d46000610fde565b565b6107de610f57565b6107ea816007546110a4565b6001600760008282546107fd91906121aa565b9250508190555050565b6000600660009054906101000a900473ffffffffffffffffffffffffffffffffffffffff16905090565b606060018054610840906120a7565b80601f016020809104026020016040519081016040528092919081815260200182805461086c906120a7565b80156108b95780601f1061088e576101008083540402835291602001916108b9565b820191906000526020600020905b81548152906001019060200180831161089c57829003601f168201915b5050505050905090565b6108d56108ce610bb6565b83836110c2565b5050565b6108e484848461054e565b6108f86108ef610bb6565b85858585611231565b50505050565b606061090982610af1565b5060006109146113e2565b90506000815111610934576040518060200160405280600081525061095f565b8061093e846113f9565b60405160200161094f92919061221a565b6040516020818303038152906040525b915050919050565b60075481565b6000600560008473ffffffffffffffffffffffffffffffffffffffff1673ffffffffffffffffffffffffffffffffffffffff16815260200190815260200160002060008373ffffffffffffffffffffffffffffffffffffffff1673ffffffffffffffffffffffffffffffffffffffff16815260200190815260200160002060009054906101000a900460ff16905092915050565b610a09610f57565b600073ffffffffffffffffffffffffffffffffffffffff168173ffffffffffffffffffffffffffffffffffffffff1603610a7b5760006040517f1e4fbdf7000000000000000000000000000000000000000000000000000000008152600401610a729190611ce3565b60405180910390fd5b610a8481610fde565b50565b60007f01ffc9a7000000000000000000000000000000000000000000000000000000007bffffffffffffffffffffffffffffffffffffffffffffffffffffffff1916827bffffffffffffffffffffffffffffffffffffffffffffffffffffffff1916149050919050565b600080610afd836114c7565b9050600073ffffffffffffffffffffffffffffffffffffffff168173ffffffffffffffffffffffffffffffffffffffff1603610b7057826040517f7e273289000000000000000000000000000000000000000000000000000000008152600401610b679190611df9565b60405180910390fd5b80915050919050565b60006004600083815260200190815260200160002060009054906101000a900473ffffffffffffffffffffffffffffffffffffffff169050919050565b600033905090565b610bcb8383836001611504565b505050565b600080610bdc846114c7565b9050600073ffffffffffffffffffffffffffffffffffffffff168373ffffffffffffffffffffffffffffffffffffffff1614610c1e57610c1d8184866116c9565b5b600073ffffffffffffffffffffffffffffffffffffffff168173ffffffffffffffffffffffffffffffffffffffff1614610caf57610c60600085600080611504565b6001600360008373ffffffffffffffffffffffffffffffffffffffff1673ffffffffffffffffffffffffffffffffffffffff168152602001908152602001600020600082825403925050819055505b600073ffffffffffffffffffffffffffffffffffffffff168573ffffffffffffffffffffffffffffffffffffffff1614610d32576001600360008773ffffffffffffffffffffffffffffffffffffffff1673ffffffffffffffffffffffffffffffffffffffff168152602001908152602001600020600082825401925050819055505b846002600086815260200190815260200160002060006101000a81548173ffffffffffffffffffffffffffffffffffffffff021916908373ffffffffffffffffffffffffffffffffffffffff160217905550838573ffffffffffffffffffffffffffffffffffffffff168273ffffffffffffffffffffffffffffffffffffffff167fddf252ad1be2c89b69c2b068fc378daa952ba7f163c4a11628f55a4df523b3ef60405160405180910390a4809150509392505050565b600073ffffffffffffffffffffffffffffffffffffffff168273ffffffffffffffffffffffffffffffffffffffff1603610e5c5760006040517f64a0ae92000000000000000000000000000000000000000000000000000000008152600401610e539190611ce3565b60405180910390fd5b6000610e6a83836000610bd0565b9050600073ffffffffffffffffffffffffffffffffffffffff168173ffffffffffffffffffffffffffffffffffffffff1603610edd57816040517f7e273289000000000000000000000000000000000000000000000000000000008152600401610ed49190611df9565b60405180910390fd5b8373ffffffffffffffffffffffffffffffffffffffff168173ffffffffffffffffffffffffffffffffffffffff1614610f51578382826040517f64283d7b000000000000000000000000000000000000000000000000000000008152600401610f48939291906120d8565b60405180910390fd5b50505050565b610f5f610bb6565b73ffffffffffffffffffffffffffffffffffffffff16610f7d610807565b73ffffffffffffffffffffffffffffffffffffffff1614610fdc57610fa0610bb6565b6040517f118cdaa7000000000000000000000000000000000000000000000000000000008152600401610fd39190611ce3565b60405180910390fd5b565b6000600660009054906101000a900473ffffffffffffffffffffffffffffffffffffffff16905081600660006101000a81548173ffffffffffffffffffffffffffffffffffffffff021916908373ffffffffffffffffffffffffffffffffffffffff1602179055508173ffffffffffffffffffffffffffffffffffffffff168173ffffffffffffffffffffffffffffffffffffffff167f8be0079c531659141344cd1fd0a4f28419497f9722a3daafe3b4186f6b6457e060405160405180910390a35050565b6110be82826040518060200160405280600081525061178d565b5050565b600073ffffffffffffffffffffffffffffffffffffffff168273ffffffffffffffffffffffffffffffffffffffff160361113357816040517f5b08ba1800000000000000000000000000000000000000000000000000000000815260040161112a9190611ce3565b60405180910390fd5b80600560008573ffffffffffffffffffffffffffffffffffffffff1673ffffffffffffffffffffffffffffffffffffffff16815260200190815260200160002060008473ffffffffffffffffffffffffffffffffffffffff1673ffffffffffffffffffffffffffffffffffffffff16815260200190815260200160002060006101000a81548160ff0219169083151502179055508173ffffffffffffffffffffffffffffffffffffffff168373ffffffffffffffffffffffffffffffffffffffff167f17307eab39ab6107e8899845ad3d59bd9653f200f220920489ca2b5937696c31836040516112249190611b72565b60405180910390a3505050565b60008373ffffffffffffffffffffffffffffffffffffffff163b11156113db578273ffffffffffffffffffffffffffffffffffffffff1663150b7a02868685856040518563ffffffff1660e01b81526004016112909493929190612293565b6020604051808303816000875af19250505080156112cc57506040513d601f19601f820116820180604052508101906112c991906122f4565b60015b611350573d80600081146112fc576040519150601f19603f3d011682016040523d82523d6000602084013e611301565b606091505b50600081510361134857836040517f64a0ae9200000000000000000000000000000000000000000000000000000000815260040161133f9190611ce3565b60405180910390fd5b805181602001fd5b63150b7a0260e01b7bffffffffffffffffffffffffffffffffffffffffffffffffffffffff1916817bffffffffffffffffffffffffffffffffffffffffffffffffffffffff1916146113d957836040517f64a0ae920000000000000000000000000000000000000000000000000000000081526004016113d09190611ce3565b60405180910390fd5b505b5050505050565b606060405180602001604052806000815250905090565b606060006001611408846117b1565b01905060008167ffffffffffffffff81111561142757611426611e8a565b5b6040519080825280601f01601f1916602001820160405280156114595781602001600182028036833780820191505090505b509050600082602001820190505b6001156114bc578080600190039150507f3031323334353637383961626364656600000000000000000000000000000000600a86061a8153600a85816114b0576114af612321565b5b04945060008503611467575b819350505050919050565b60006002600083815260200190815260200160002060009054906101000a900473ffffffffffffffffffffffffffffffffffffffff169050919050565b808061153d5750600073ffffffffffffffffffffffffffffffffffffffff168273ffffffffffffffffffffffffffffffffffffffff1614155b1561167157600061154d84610af1565b9050600073ffffffffffffffffffffffffffffffffffffffff168373ffffffffffffffffffffffffffffffffffffffff16141580156115b857508273ffffffffffffffffffffffffffffffffffffffff168173ffffffffffffffffffffffffffffffffffffffff1614155b80156115cb57506115c9818461096d565b155b1561160d57826040517fa9fbf51f0000000000000000000000000000000000000000000000000000000081526004016116049190611ce3565b60405180910390fd5b811561166f57838573ffffffffffffffffffffffffffffffffffffffff168273ffffffffffffffffffffffffffffffffffffffff167f8c5be1e5ebec7d5bd14f71427d1e84f3dd0314c0f7b2291e5b200ac8c7c3b92560405160405180910390a45b505b836004600085815260200190815260200160002060006101000a81548173ffffffffffffffffffffffffffffffffffffffff021916908373ffffffffffffffffffffffffffffffffffffffff16021790555050505050565b6116d4838383611904565b61178857600073ffffffffffffffffffffffffffffffffffffffff168373ffffffffffffffffffffffffffffffffffffffff160361174957806040517f7e2732890000000000000000000000000000000000000000000000000000000081526004016117409190611df9565b60405180910390fd5b81816040517f177e802f00000000000000000000000000000000000000000000000000000000815260040161177f929190612350565b60405180910390fd5b505050565b61179783836119c5565b6117ac6117a2610bb6565b6000858585611231565b505050565b600080600090507a184f03e93ff9f4daa797ed6e38ed64bf6a1f010000000000000000831061180f577a184f03e93ff9f4daa797ed6e38ed64bf6a1f010000000000000000838161180557611804612321565b5b0492506040810190505b6d04ee2d6d415b85acef8100000000831061184c576d04ee2d6d415b85acef8100000000838161184257611841612321565b5b0492506020810190505b662386f26fc10000831061187b57662386f26fc10000838161187157611870612321565b5b0492506010810190505b6305f5e10083106118a4576305f5e100838161189a57611899612321565b5b0492506008810190505b61271083106118c95761271083816118bf576118be612321565b5b0492506004810190505b606483106118ec57606483816118e2576118e1612321565b5b0492506002810190505b600a83106118fb576001810190505b80915050919050565b60008073ffffffffffffffffffffffffffffffffffffffff168373ffffffffffffffffffffffffffffffffffffffff16141580156119bc57508273ffffffffffffffffffffffffffffffffffffffff168473ffffffffffffffffffffffffffffffffffffffff16148061197d575061197c848461096d565b5b806119bb57508273ffffffffffffffffffffffffffffffffffffffff166119a383610b79565b73ffffffffffffffffffffffffffffffffffffffff16145b5b90509392505050565b600073ffffffffffffffffffffffffffffffffffffffff168273ffffffffffffffffffffffffffffffffffffffff1603611a375760006040517f64a0ae92000000000000000000000000000000000000000000000000000000008152600401611a2e9190611ce3565b60405180910390fd5b6000611a4583836000610bd0565b9050600073ffffffffffffffffffffffffffffffffffffffff168173ffffffffffffffffffffffffffffffffffffffff1614611ab95760006040517f73c6ac6e000000000000000000000000000000000000000000000000000000008152600401611ab09190611ce3565b60405180910390fd5b505050565b6000604051905090565b600080fd5b600080fd5b60007fffffffff0000000000000000000000000000000000000000000000000000000082169050919050565b611b0781611ad2565b8114611b1257600080fd5b50565b600081359050611b2481611afe565b92915050565b600060208284031215611b4057611b3f611ac8565b5b6000611b4e84828501611b15565b91505092915050565b60008115159050919050565b611b6c81611b57565b82525050565b6000602082019050611b876000830184611b63565b92915050565b600081519050919050565b600082825260208201905092915050565b60005b83811015611bc7578082015181840152602081019050611bac565b60008484015250505050565b6000601f19601f8301169050919050565b6000611bef82611b8d565b611bf98185611b98565b9350611c09818560208601611ba9565b611c1281611bd3565b840191505092915050565b60006020820190508181036000830152611c378184611be4565b905092915050565b6000819050919050565b611c5281611c3f565b8114611c5d57600080fd5b50565b600081359050611c6f81611c49565b92915050565b600060208284031215611c8b57611c8a611ac8565b5b6000611c9984828501611c60565b91505092915050565b600073ffffffffffffffffffffffffffffffffffffffff82169050919050565b6000611ccd82611ca2565b9050919050565b611cdd81611cc2565b82525050565b6000602082019050611cf86000830184611cd4565b92915050565b611d0781611cc2565b8114611d1257600080fd5b50565b600081359050611d2481611cfe565b92915050565b60008060408385031215611d4157611d40611ac8565b5b6000611d4f85828601611d15565b9250506020611d6085828601611c60565b9150509250929050565b600080600060608486031215611d8357611d82611ac8565b5b6000611d9186828701611d15565b9350506020611da286828701611d15565b9250506040611db386828701611c60565b9150509250925092565b600060208284031215611dd357611dd2611ac8565b5b6000611de184828501611d15565b91505092915050565b611df381611c3f565b82525050565b6000602082019050611e0e6000830184611dea565b92915050565b611e1d81611b57565b8114611e2857600080fd5b50565b600081359050611e3a81611e14565b92915050565b60008060408385031215611e5757611e56611ac8565b5b6000611e6585828601611d15565b9250506020611e7685828601611e2b565b9150509250929050565b600080fd5b600080fd5b7f4e487b7100000000000000000000000000000000000000000000000000000000600052604160045260246000fd5b611ec282611bd3565b810181811067ffffffffffffffff82111715611ee157611ee0611e8a565b5b80604052505050565b6000611ef4611abe565b9050611f008282611eb9565b919050565b600067ffffffffffffffff821115611f2057611f1f611e8a565b5b611f2982611bd3565b9050602081019050919050565b82818337600083830152505050565b6000611f58611f5384611f05565b611eea565b905082815260208101848484011115611f7457611f73611e85565b5b611f7f848285611f36565b509392505050565b600082601f830112611f9c57611f9b611e80565b5b8135611fac848260208601611f45565b91505092915050565b60008060008060808587031215611fcf57611fce611ac8565b5b6000611fdd87828801611d15565b9450506020611fee87828801611d15565b9350506040611fff87828801611c60565b925050606085013567ffffffffffffffff8111156120205761201f611acd565b5b61202c87828801611f87565b91505092959194509250565b6000806040838503121561204f5761204e611ac8565b5b600061205d85828601611d15565b925050602061206e85828601611d15565b9150509250929050565b7f4e487b7100000000000000000000000000000000000000000000000000000000600052602260045260246000fd5b600060028204905060018216806120bf57607f821691505b6020821081036120d2576120d1612078565b5b50919050565b60006060820190506120ed6000830186611cd4565b6120fa6020830185611dea565b6121076040830184611cd4565b949350505050565b7f53656e64657220646f6573206e6f74206f776e2074686520746f6b656e000000600082015250565b6000612145601d83611b98565b91506121508261210f565b602082019050919050565b6000602082019050818103600083015261217481612138565b9050919050565b7f4e487b7100000000000000000000000000000000000000000000000000000000600052601160045260246000fd5b60006121b582611c3f565b91506121c083611c3f565b92508282019050808211156121d8576121d761217b565b5b92915050565b600081905092915050565b60006121f482611b8d565b6121fe81856121de565b935061220e818560208601611ba9565b80840191505092915050565b600061222682856121e9565b915061223282846121e9565b91508190509392505050565b600081519050919050565b600082825260208201905092915050565b60006122658261223e565b61226f8185612249565b935061227f818560208601611ba9565b61228881611bd3565b840191505092915050565b60006080820190506122a86000830187611cd4565b6122b56020830186611cd4565b6122c26040830185611dea565b81810360608301526122d4818461225a565b905095945050505050565b6000815190506122ee81611afe565b92915050565b60006020828403121561230a57612309611ac8565b5b6000612318848285016122df565b91505092915050565b7f4e487b7100000000000000000000000000000000000000000000000000000000600052601260045260246000fd5b60006040820190506123656000830185611cd4565b6123726020830184611dea565b939250505056fea264697066735822122092658dbb3f3a27839507b4f0c2daa42ac9b93cc3a5d978cdaaf99fc29abc9a6a64736f6c63430008140033",
  "linkReferences": {},
  "deployedLinkReferences": {}
}